:020000040800F2
:10000000C0100020491A0008591A0008591A00089F
:10001000591A0008591A0008591A0008000000006F
:10002000000000000000000000000000591A000855
:10003000591A000800000000591A0008113500087C
:10004000491A0008491A0008491A0008491A000804
:10005000491A0008491A0008491A0008491A0008F4
:10006000491A0008491A0008491A0008491A0008E4
:10007000491A0008491A0008491A0008491A0008D4
:10008000491A0008491A0008491A0008491A0008C4
:10009000491A0008491A0008491A0008491A0008B4
:1000A000491A0008491A0008491A0008491A0008A4
:1000B000491A0008491A0008491A0008491A000894
:1000C000491A0008491A0008491A0008491A000884
:1000D000491A0008491A0008491A0008491A000874
:1000E000491A0008A1340008491A0008491A0008F2
:1000F000491A000880B487B000AF786039604FF0CB
:1001000000037B614FF000033B614FF00003FB6095
:100110004FF000037B618CE07B694FF0010202FA33
:1001200003F33B613B681A683B691340FB60FA6864
:100130003B699A4279D17B681A687B694FEA43032D
:100140004FF0030101FA03F36FEA03031A407B68DF
:100150001A607B681A683B681B7919467B694FEA0D
:10016000430301FA03F31A437B681A603B681B7967
:10017000012B03D03B681B79022B3AD17B689A682C
:100180007B694FEA43034FF0030101FA03F36FEA7F
:1001900003031A407B689A607B689A683B685B79C6
:1001A00019467B694FEA430301FA03F31A437B685C
:1001B0009A607B689B889AB27B699BB24FF0010181
:1001C00001FA03F39BB26FEA03039BB213409AB2A6
:1001D0007B689A807B689B889AB23B689B791946BA
:1001E0007B699BB201FA03F39BB213439AB27B681B
:1001F0009A807B68DA687B699BB24FEA43034FF0D1
:10020000030101FA03F36FEA03031A407B68DA6023
:100210007B68DA683B68DB7919467B694FEA430300
:1002200001FA03F31A437B68DA607B6903F1010387
:100230007B617B690F2B7FF66FAF07F11C07BD4613
:1002400080BC704780B485B000AF78600B467B807F
:100250004FF00003FB737B681B8A9AB27B881340C4
:100260009BB2002B03D04FF00103FB7302E04FF071
:100270000003FB73FB7B184607F11407BD4680BCE7
:10028000704700BF80B483B000AF78600B467B80BE
:100290007B687A881A8307F10C07BD4680BC7047DB
:1002A00080B483B000AF78600B467B807B687A882F
:1002B0005A8307F10C07BD4680BC704780B588B0F3
:1002C00000AF786007F10C03184601F09DFCFA6856
:1002D00041F25973CDF2B713A3FB02134FEA533324
:1002E0007A6802FB03F3FB6103E0FB6903F1FF3370
:1002F000FB61FB69002BF8D107F12007BD4680BDEB
:1003000080B582B000AF4FF00003FB7133E0FB79A2
:1003100003F1B00318464FF0000100F033F84FF03E
:1003200000004FF0000100F02DF84FF010004FF0EA
:10033000000100F027F84FF00003BB7113E0B9791A
:10034000FA7940F64803C2F200034FEAC1018A1865
:100350009B181B7818464FF0010100F013F8BB7989
:1003600003F10103BB71BB795BB2002BE7DAFB79C8
:1003700003F10103FB71FB79072BC8D907F10807CB
:10038000BD4680BD80B584B000AF02460B46FA7111
:10039000BB71BB79002B08D04FF00000C4F2020003
:1003A0004FF02001FFF76EFF07E04FF00000C4F2AE
:1003B00002004FF02001FFF773FF4FF00000C4F27E
:1003C00002004FF08001FFF76BFF4FF00003FB735B
:1003D0002CE04FF00000C4F202004FF01001FFF7D4
:1003E0005FFFFB795BB2002B08DA4FF00000C4F22C
:1003F00002004FF00801FFF745FF07E04FF0000053
:10040000C4F202004FF00801FFF74AFF4FF000006E
:10041000C4F202004FF01001FFF734FFFB794FEAFE
:100420004303FB71FB7B03F10103FB73FB7B072B96
:10043000CFD94FF00000C4F202004FF08001FFF767
:1004400021FF4FF00000C4F202004FF02001FFF73F
:1004500019FF07F11007BD4680BD00BF80B582B00F
:1004600000AF4FF00003FB711CE04FF00003BB71C5
:1004700010E0B979FA7940F64803C2F200034FEA76
:10048000C1018A189B184FF000021A70BB7903F162
:100490000103BB71BB795BB2002BEADAFB7903F194
:1004A0000103FB71FB79072BDFD9FFF729FF07F168
:1004B0000807BD4680BD00BF80B582B000AF4FF0D9
:1004C00001004FF0010101F017FD4FF0F8033B6010
:1004D0004FF001033B714FF002037B713B464FF03D
:1004E0000000C4F202001946FFF704FE4FF00000BE
:1004F000C4F202004FF0F801FFF7C4FE4FF0000015
:10050000C4F202004FF04001FFF7CAFE4FF0640052
:10051000FFF7D4FE4FF00000C4F202004FF040019C
:10052000FFF7B0FE4FF0AE004FF00001FFF72AFFDB
:100530004FF0D5004FF00001FFF724FF4FF05000BF
:100540004FF00001FFF71EFF4FF0A8004FF0000131
:10055000FFF718FF4FF03F004FF00001FFF712FFC9
:100560004FF0D3004FF00001FFF70CFF4FF00000F9
:100570004FF00001FFF706FF4FF040004FF0000181
:10058000FFF700FF4FF08D004FF00001FFF7FAFE7C
:100590004FF014004FF00001FFF7F4FE4FF0200081
:1005A0004FF00001FFF7EEFE4FF002004FF00001A8
:1005B000FFF7E8FE4FF0A0004FF00001FFF7E2FE6A
:1005C0004FF0C8004FF00001FFF7DCFE4FF0DA00FB
:1005D0004FF00001FFF7D6FE4FF018004FF000017A
:1005E000FFF7D0FE4FF081004FF00001FFF7CAFE89
:1005F0004FF0EF004FF00001FFF7C4FE4FF0D900BD
:100600004FF00001FFF7BEFE4FF0F1004FF0000188
:10061000FFF7B8FE4FF0DB004FF00001FFF7B2FE2E
:100620004FF030004FF00001FFF7ACFE4FF0A40098
:100630004FF00001FFF7A6FE4FF0A6004FF00001BB
:10064000FFF7A0FE4FF0AF004FF00001FFF79AFE5A
:10065000FFF704FF07F10807BD4680BD80B584B0F1
:1006600000AF13460246FA710A46BA717B714FF029
:100670000003BB734FF00003FB73FB795BB2002BED
:1006800074DBBB793F2B73D8BB794FEAD303DBB262
:100690004FEAC312FB79D318BB60BB794FEAD3038F
:1006A000DBB21A464FEA4212D31A4FEAC303DAB258
:1006B000BB79D318BB73FB794FEA1313DBB243F05A
:1006C0001003DBB218464FF00001FFF75BFEFB7929
:1006D00003F00F03DBB218464FF00001FFF752FEA4
:1006E000BB794FEAD303DBB2DBB203F00F03DBB21B
:1006F00063F04F03DBB2DBB218464FF00001FFF7A7
:1007000041FE40F24803C2F20003BA689B181B780E
:10071000FB737B79002B0DD1BB7B4FF0010202FAFA
:1007200003F3DBB26FEA0303DAB2FB7B1340DBB205
:10073000FB730CE07B79012B09D1BB7B4FF00102ED
:1007400002FA03F3DAB2FB7B1343DBB2FB73FB7BEE
:1007500018464FF00101FFF715FE40F24803C2F2C0
:100760000003BA689B18FA7B1A7002E000BF00E031
:1007700000BF07F11007BD4680BD00BF80B58AB03D
:1007800000AFF860B9607A603B604FF000037B62B5
:100790004FF000033B624FF00003FB614FF000039A
:1007A000BB614FF000037B61FB68802B00F39B80F3
:1007B0007B68802B00F39780BB68402B00F393800D
:1007C0003B68402B00F38F803A68BB68D31A7B628A
:1007D0007A68FB68D31A3B627B6A002B07DA7B6A74
:1007E000C3F100037B624FF0FF33BB6102E04FF0C7
:1007F0000103BB613B6A002B07DA3B6AC3F10003CC
:100800003B624FF0FF33FB6102E04FF00103FB61FD
:100810007B6A4FEA43037B623B6A4FEA43033B62D6
:10082000FB68D9B2BB68DAB297F830300846114697
:100830001A46FFF713FF3A6A7B6A9A4229DD3B6A40
:100840004FEA63037A6AD31A7B611DE07B69002B50
:1008500007DBBA68BB69D318BB607A693B6AD31AF5
:100860007B61FA68FB69D318FB607A697B6AD318ED
:100870007B61FB68D9B2BB68DAB297F830300846C2
:1008800011461A46FFF7EAFEFA687B689A42DDD104
:100890002AE07B6A4FEA63033A6AD31A7B611DE060
:1008A0007B69002B07DBFA68FB69D318FB607A6968
:1008B0007B6AD31A7B61BA68BB69D318BB607A695B
:1008C0003B6AD3187B61FB68D9B2BB68DAB297F890
:1008D0003030084611461A46FFF7C0FEBA683B683A
:1008E0009A42DDD100E000BF07F12807BD4680BD78
:1008F00080B584B000AF3A600246FA710A46BA7118
:100900007B71FB794FEA1313DBB243F01003DBB2C8
:1009100018464FF00001FFF735FDFB7903F00F0398
:10092000DBB218464FF00001FFF72CFDBB794FEA10
:10093000D303DBB2DBB203F00F03DBB263F04F0390
:10094000DBB2DBB218464FF00001FFF71BFD4FF0A2
:100950000003FB7352E0BB794FEAD303DAB2FB7BAF
:10096000D318DBB2DBB203F00F03DBB263F04F034B
:10097000DBB2DBB218464FF00001FFF703FDFB7955
:100980004FEA1313DBB243F01003DBB218464FF00B
:100990000001FFF7F7FCFB7903F00F03DBB2184609
:1009A0004FF00001FFF7EEFC4FF00003BB731DE0BA
:1009B000BA7B397E48F63963C3F6E303A3FB010330
:1009C0004FEA5303DBB21946FB7BCB1A797901FB63
:1009D00003F3D3183A68D3181B7818464FF0010177
:1009E000FFF7D0FCBB7B03F10103BB73BA7B7B79C0
:1009F0009A42DDD3FB7B03F10103FB733B7E4FEA9D
:100A0000D303DBB2FA7B9A42A5D307F11007BD46A8
:100A100080BD00BF80B586B000AF3A600246FA7173
:100A20000A46BA717B714FF00003FB727B79142B7D
:100A30001BD140F20003C2F200034FF020021A70F3
:100A400040F20103C2F200034FF01C021A7044F29C
:100A50009473C0F600033B6147F22413C0F6000311
:100A6000FB604FF00103FB7262E07B790E2B1BD120
:100A700040F20003C2F200034FF018021A7040F275
:100A80000103C2F200034FF010021A7048F69453AB
:100A9000C0F600033B614AF24413C0F60003FB605A
:100AA0004FF00103FB7243E07B790C2B40D07B7944
:100AB0000A2B1BD140F20003C2F200034FF01002D8
:100AC0001A7040F20103C2F200034FF00B021A70D9
:100AD0004AF67453C0F600033B614BF27C63C0F6E8
:100AE0000003FB604FF00103FB7221E07B79072BD1
:100AF0001BD140F20003C2F200034FF008021A704B
:100B000040F20103C2F200034FF007021A704BF6E5
:100B10001443C0F600033B614BF60873C0F60003B4
:100B2000FB604FF00103FB7202E04FF00003FB7229
:100B3000FB7A012B40F0EC80FB794FEA1313DBB218
:100B400043F01003DBB218464FF00001FFF71AFC28
:100B5000FB7903F00F03DBB218464FF00001FFF7FB
:100B600011FCBB794FEAD303DBB2DBB203F00F0316
:100B7000DBB263F04F03DBB2DBB218464FF000018B
:100B8000FFF700FC4FF00003FB75B5E0BB794FEABF
:100B9000D303DAB2FB7DD318DBB2DBB203F00F0371
:100BA000DBB263F04F03DBB2DBB218464FF000015B
:100BB000FFF7E8FBFB794FEA1313DBB243F01003B6
:100BC000DBB218464FF00001FFF7DCFBFB7903F0C6
:100BD0000F03DBB218464FF00001FFF7D3FB4FF0D5
:100BE0000003BB757BE03B68C02B3ADDBA7D40F269
:100BF0000003C2F20003197848F63963C3F6E30331
:100C0000A3FB01034FEA5303DBB21946FB7DC91A6C
:100C100040F20103C2F200031B7803FB01F3D21878
:100C200040F20103C2F200031B783968A1F1C00150
:100C300001FB03F140F20003C2F200031B7803FB47
:100C400001F3002B01DA03F107034FEAE303D318A2
:100C5000FA68D3181B7818464FF00101FFF792FB92
:100C600039E0BA7D40F20003C2F20003197848F679
:100C70003963C3F6E303A3FB01034FEA5303DBB27B
:100C80001946FB7DC91A40F20103C2F200031B782A
:100C900003FB01F3D21840F20103C2F200031B78F8
:100CA0003968A1F1200101FB03F140F20003C2F217
:100CB00000031B7803FB01F3002B01DA03F10703A8
:100CC0004FEAE303D3183A69D3181B7818464FF05C
:100CD0000101FFF757FBBB7D03F10103BB7540F238
:100CE0000103C2F200031B78BA7D9A42FFF47BAF86
:100CF000FB7D03F10103FB7540F20003C2F2000328
:100D00001B784FEAD303DBB2FA7D9A42FFF43EAF81
:100D100007F11807BD4680BD80B584B000AF3A60CA
:100D20000246FA710A46BA717B714FF00003FB73F9
:100D300017E03B681B781A46F879B9797B79FFF799
:100D400069FE40F20103C2F200031A78FB79D3185E
:100D5000FB71FB7B03F10103FB733B6803F10103B0
:100D60003B603B681B78002BE3D107F11007BD46C1
:100D700080BD00BFB0B48BB000AFF860B96013465F
:100D8000FB714FF0000387F826304CF23C43C0F66D
:100D9000000307F114041D460FCD0FC42B68237008
:100DA00030E0FA7997F82630D01AB9684CF6CD437E
:100DB000CCF6CC43A3FB01234FEAD30213464FEA00
:100DC00083039B184FEA4303CA1AD3B203F13003DB
:100DD000DAB207F128010B1803F8142CBA684CF6A4
:100DE000CD43CCF6CC43A3FB02134FEAD303BB6045
:100DF00097F8263087F8273097F8263003F101035B
:100E000087F82630BB68002BCBD14FF0000387F862
:100E1000263011E097F82630FA68D31897F8262084
:100E200007F128018A1812F8142C1A7097F8263046
:100E300003F1010387F8263097F82620FB799A42C0
:100E4000E8D997F82630FA68D3184FF000021A70E4
:100E500097F82730184607F12C07BD46B0BC7047FD
:100E600080B485B000AF78600B46FB704FF0000394
:100E7000FB7309E0FB7B7A68D3184FF000021A700D
:100E8000FB7B03F10103FB73FA7BFB789A42F1D3FE
:100E900007F11407BD4680BC704700BF80B485B021
:100EA00000AF78600B46FB704FF00003FB73FB78DC
:100EB000092B3ED97B6803F10100FA784CF6CD434B
:100EC000CCF6CC43A3FB02134FEAD3010B464FEA07
:100ED00083035B184FEA4303D31ADBB203F13003F9
:100EE000DBB20370FA784CF6CD43CCF6CC43A3FBCF
:100EF00002134FEAD303FB70FA784CF6CD43CCF6DD
:100F0000CC43A3FB02134FEAD3010B464FEA830302
:100F10005B184FEA4303D31ADBB203F13003DAB2B2
:100F20007B681A707B6803F102034FF000021A70AD
:100F300021E07B6803F10100FA784CF6CD43CCF652
:100F4000CC43A3FB02134FEAD3010B464FEA8303C2
:100F50005B184FEA4303D31ADBB203F13003DBB271
:100F600003707B684FF030021A707B6803F1020354
:100F70004FF000021A70184607F11407BD4680BCF6
:100F8000704700BF80B586B000AF3A600246FA7184
:100F90000A46BA717B714FF00003FB737B79112B0A
:100FA00016D140F20003C2F200034FF010021A7093
:100FB00040F20103C2F200034FF00A021A704CF231
:100FC000D003C0F600033B614FF00103FB7336E032
:100FD0007B79192B16D140F20003C2F200034FF0C7
:100FE00018021A7040F20103C2F200034FF00E0221
:100FF0001A704CF2D413C0F600033B614FF00103AA
:10100000FB731CE07B79082B16D140F20003C2F27F
:1010100000034FF008021A7040F20103C2F200030D
:101020004FF005021A704CF2F833C0F600033B6132
:101030004FF00103FB7302E04FF00003FB73FB7BF7
:10104000012B40F0B080FB794FEA1313DBB243F081
:101050001003DBB218464FF00001FFF793F9FB795C
:1010600003F00F03DBB218464FF00001FFF78AF9D7
:10107000BB794FEAD303DBB2DBB203F00F03DBB281
:1010800063F04F03DBB2DBB218464FF00001FFF70D
:1010900079F94FF00003FB7579E0BB794FEAD30390
:1010A000DAB2FB7DD318DBB2DBB203F00F03DBB2A5
:1010B00063F04F03DBB2DBB218464FF00001FFF7DD
:1010C00061F9FB794FEA1313DBB243F01003DBB293
:1010D00018464FF00001FFF755F9FB7903F00F03B5
:1010E000DBB218464FF00001FFF74CF94FF0000358
:1010F000BB7540E03B682D2B39DDBA7D40F2000323
:10110000C2F20003197848F63963C3F6E303A3FB80
:1011100001034FEA5303DBB21946FB7DC91A40F2C3
:101120000103C2F200031B7803FB01F3D21840F263
:101130000103C2F200031B783968A1F12E0101FB03
:1011400003F140F20003C2F200031B7803FB01F33A
:10115000002B01DA03F107034FEAE303D3183A69DE
:10116000D3181B7818464FF00101FFF70BF9BB7D30
:1011700003F10103BB7540F20103C2F200031B78C7
:10118000BA7D9A42B6D3FB7D03F10103FB7540F2B1
:101190000003C2F200031B784FEAD303DBB2FA7DEF
:1011A0009A42FFF47AAF07F11807BD4680BD00BF31
:1011B00090B5ADF5157D00AF07F10804226007F189
:1011C0000402136007F10F0302461A7007F10E03C1
:1011D0000A461A704FF0000387F847324FF00003B9
:1011E00087F8463207F114031A464FF40C73104681
:1011F0004FF000011A4603F083F997F86032112B83
:1012000018D140F20003C2F200034FF010021A702E
:1012100040F20103C2F200034FF00A021A704CF2CE
:10122000D003C0F60003C7F848324FF0010387F837
:1012300047323DE097F86032192B18D140F2000395
:10124000C2F200034FF018021A7040F20103C2F21A
:1012500000034FF00E021A704CF2D413C0F60003D4
:10126000C7F848324FF0010387F8473220E097F87B
:101270006032082B18D140F20003C2F200034FF095
:1012800008021A7040F20103C2F200034FF0050297
:101290001A704CF2F833C0F60003C7F848324FF02A
:1012A000010387F8473203E04FF0000387F8473225
:1012B00097F84732012B40F0428107F1080207F10D
:1012C000040312681B689A4200F039814FF0000352
:1012D00087F84F3263E097F84F2297F84F1240F2A9
:1012E0000103C2F200031B7807F108000068A0F1B7
:1012F0002E0000FB03F040F20003C2F200031B7853
:1013000003FB00F3002B01DA03F107034FEAE303C9
:10131000CB18D7F84812CB18197807F11403995451
:1013200097F84F2240F20103C2F200031B781946DE
:1013300040F20003C2F200031B7803FB01F3002B11
:1013400001DA03F107034FEAE303D21897F84F12CB
:1013500040F20103C2F200031B7807F104000068A9
:10136000A0F12E0000FB03F040F20003C2F20003E4
:101370001B7803FB00F3002B01DA03F107034FEAAC
:10138000E303CB18D7F84812CB18197807F11403E8
:10139000995497F84F3203F1010387F84F3297F8C9
:1013A0004F2240F20103C2F200031B78194640F2BB
:1013B0000003C2F200031B7803FB01F3002B01DAE8
:1013C00003F107034FEAE3039A4284DB07F10F03BB
:1013D0001B784FEA1313DBB243F01003DBB218465D
:1013E0004FF00001FEF7CEFF07F10F031B7803F06B
:1013F0000F03DBB218464FF00001FEF7C3FF07F101
:101400000E031B784FEAD303DBB2DBB203F00F030A
:10141000DBB263F04F03DBB2DBB218464FF00001E2
:10142000FEF7B0FF4FF0000387F84F3278E007F186
:101430000E031B784FEAD303DAB297F84F32D31872
:10144000DBB2DBB203F00F03DBB263F04F03DBB2BE
:10145000DBB218464FF00001FEF794FF07F10F03CF
:101460001B784FEA1313DBB243F01003DBB21846CC
:101470004FF00001FEF786FF07F10F031B7803F022
:101480000F03DBB218464FF00001FEF77BFF4FF071
:10149000000387F84E3234E007F108031B682F2B56
:1014A00029DD97F84E2240F20003C2F200031B78B8
:1014B0004FEAD303DBB2194697F84F32CB1A03F148
:1014C000FF3140F20103C2F200031B7803FB01F37A
:1014D000D21840F20103C2F200031B7897F864129D
:1014E00001FB03F3D31807F11402D35C18464FF045
:1014F0000101FEF747FF97F84E3203F1010387F829
:101500004E3240F20103C2F200031B7897F84E22DC
:101510009A42C1D397F84F3203F1010387F84F3253
:1015200097F84F2240F20003C2F200031B784FEA03
:10153000D303DBB203F1FF339A427FF778AF07F5AD
:101540001577BD4690BD00BF80B584B000AF3A604E
:101550000246FA710A46BA717B714FF00003FB73C1
:1015600017E03B681B781A46F879B9797B79FFF761
:1015700009FD40F20103C2F200031A78FB79D31887
:10158000FB71FB7B03F10103FB733B6803F1010378
:101590003B603B681B78002BE3D107F11007BD4689
:1015A00080BD00BF82B090B58DB002AF07F1380C9E
:1015B0008CE80C000346FB710B46BB7107F120035E
:1015C00018464FF00201FFF74BFC07F11C031846C9
:1015D0004FF00201FFF744FC07F1180318464FF0E3
:1015E0000201FFF73DFC97F83E3007F1200210465C
:1015F0001946FFF753FC97F83F3007F11C021046DD
:101600001946FFF74BFC97F8403007F118021046D7
:101610001946FFF743FC97F84A3007F114021046C9
:101620001946FFF73BFC97F84B3007F110021046C4
:101630001946FFF733FC97F84C3007F10C021046BF
:101640001946FFF72BFC97F83E2097F84A309A424C
:1016500004D04FF0010387F8253003E04FF000037A
:1016600087F8253097F83F2097F84B309A4204D0FE
:101670004FF0010387F8263003E04FF0000387F8AE
:1016800026304FF0000387F8273003E197F8253024
:10169000012B23D13B7D1A4697F82030F879B97990
:1016A00097F85040009497F827400194FFF780FD89
:1016B00040F20103C2F200031A78FB79D318D8B2C2
:1016C0007B7D1A4697F82130B97997F850400094FD
:1016D00097F827400194FFF76BFD18E097F820304A
:1016E0001A46F879B97997F85030FFF74BFC40F279
:1016F0000103C2F200031A78FB79D318D8B297F825
:1017000021301A46B97997F85030FFF73BFC40F288
:101710000103C2F200031B784FEA4303DAB2FB79FC
:10172000D318D9B2BA7997F85030084611464FF01D
:101730003A02FFF727FC97F82630012B30D140F210
:101740000103C2F200031B781A464FEA4202D31883
:10175000DAB2FB79D318D8B23B7C1A463B7FB97911
:1017600097F85040009497F827400194FFF720FD28
:1017700040F20103C2F200031B784FEA8303DAB29E
:10178000FB79D318D8B27B7C1A467B7FB97997F85E
:101790005040009497F827400194FFF709FD25E099
:1017A00040F20103C2F200031B781A464FEA4202DC
:1017B000D318DAB2FB79D318D8B23B7F1A46B9797D
:1017C00097F85030FFF7DEFB40F20103C2F200034E
:1017D0001B784FEA8303DAB2FB79D318D8B27B7F48
:1017E0001A46B97997F85030FFF7CCFB40F2010365
:1017F000C2F200031B781A464FEA8202D318DAB20B
:10180000FB79D318D9B2BA7997F850300846114607
:101810004FF03A02FFF7B6FB40F20103C2F20003B9
:101820001B781A464FEA4202D3184FEA4303DAB252
:10183000FB79D318D8B23B7B1A463B7EB97997F82F
:101840005040009497F827400194FFF7B1FC40F214
:101850000103C2F200031B781A464FEAC202D31AF0
:10186000DAB2FB79D318D8B27B7B1A467B7EB97982
:1018700097F85040009497F827400194FFF798FCA0
:101880004FF02800FEF71AFD97F8273003F1010307
:1018900087F8273040F20003C2F200031B784FEABA
:1018A000D303DBB297F827209A427FF6EFAE07F119
:1018B0002C07BD46BDE8904002B0704780B483B0AD
:1018C00000AF4FF000037B600CE040F24803C2F22F
:1018D00000037A689B184FF000021A707B6803F1CE
:1018E00001037B607A6840F2FF739A42EDD907F1F9
:1018F0000C07BD4680BC704780B483B000AF034680
:10190000FB714FF02003C4F20E23FA791A6007F13D
:101910000C07BD4680BC704780B483B000AF03465F
:10192000FB714FF01003C4F20E23FA791A6007F12D
:101930000C07BD4680BC704780B485B000AF7860AE
:101940000B46FB704FF00003FB607A684FF0A0037A
:10195000C4F20E23D318FB60FB68FA781A6007F113
:101960001407BD4680BC704780B483B000AF034607
:10197000FB714FF02403C4F20E23FA791A6007F1C9
:101980000C07BD4680BC704780B400AF4FF4E04305
:10199000C4F200034FF4E042C4F20002126842F0C5
:1019A00004021A604FF4E043C4F200034FF4E04233
:1019B000C4F20002126842F002021A604FF46D4352
:1019C000CEF200034FF46D42CEF20002126942F0F3
:1019D00004021A6130BFBD4680BC704780B485B038
:1019E00000AF78604FF00003FB734FF4E043C4F2A4
:1019F00000035A687B681340002B03D04FF00103AB
:101A0000FB7302E04FF00003FB73FB7B184607F10A
:101A10001407BD4680BC704780B483B000AF7860C7
:101A20004FF4E043C4F200034FF4E042C4F200027A
:101A300011687A684FEA82020A431A6007F10C07BC
:101A4000BD4680BC704700BF80B500AF00F0E6FA2D
:101A500001F064FD80BD00BF80B400AFFEE700BFB1
:101A600080B485B000AF78604FF00003FB604FF4A6
:101A70008063C4F20103FB607B689B79002B78D004
:101A80004FF48063C4F201034FF48062C4F2010298
:101A900011687A6812686FEA02020A401A604FF40D
:101AA0008063C4F201034FF48062C4F20102516802
:101AB0007A6812686FEA02020A405A607B681B79F2
:101AC000FA68D318FB60FB68FA6811687A681268D4
:101AD0000A431A604FF48063C4F201034FF480623A
:101AE000C4F2010291687A6812686FEA02020A4041
:101AF0009A604FF48063C4F201034FF48062C4F231
:101B00000102D1687A6812686FEA02020A40DA605C
:101B10007B685B79102B1AD14FF48063C4F2010308
:101B20004FF48062C4F2010291687A6812680A4335
:101B30009A604FF48063C4F201034FF48062C4F2F0
:101B40000102D1687A6812680A43DA601FE04FF434
:101B50008063C4F20103FB607B685B79FA68D31889
:101B6000FB60FB68FA6811687A6812680A431A60B9
:101B70000DE07B681B79FA68D318FB60FB68FA6894
:101B800011687A6812686FEA02020A401A6007F167
:101B90001407BD4680BC704780B483B000AF786046
:101BA0004FF48063C4F201037A685A6107F10C07AD
:101BB000BD4680BC704700BF80B483B000AF034611
:101BC000FB714FF00003C4F24723FA791A6007F162
:101BD0000C07BD4680BC704780B483B000AF03469D
:101BE000FB7143F63503C4F202034FF000021A7092
:101BF00043F63503C4F20203FA791A7007F10C07B1
:101C0000BD4680BC704700BF80B489B000AF78602B
:101C10004FF00003FB614FF00003BB614FF0000386
:101C20007B614FF000033B614FF00003FB604FF01E
:101C30000003BB604FF46053C4F202039B6803F0DF
:101C40000C03FB61FB690C2B00F2868001A252F8A9
:101C500023F000BF891C0008591D0008591D000809
:101C6000591D0008B31C0008591D0008591D000823
:101C7000591D0008C11C0008591D0008591D000805
:101C8000591D0008CF1C00084FF46053C4F2020332
:101C90005B6803F460434FEA5333BB60BB6803F1F6
:101CA00001034FF4004202FA03F31A467B681A60FC
:101CB00067E07A684FF41053C0F2F403136060E0F9
:101CC0007A684FF49053C0F27A03136059E04FF4EE
:101CD0006053C4F202039B6803F47013BB614FF4BA
:101CE0006053C4F202039B6803F440037B61BB6949
:101CF0004FEA934240F20403C2F200039B5CDBB262
:101D0000BB617B694FEA935303F101037B614FF49D
:101D10006053C4F202039B6803F480333B613B6968
:101D2000002B0CD1BA694FF41053C0F2F40303FB3B
:101D300002F27B69B2FBF3F27B681A6021E0BA69B8
:101D40004FF49053C0F27A0303FB02F27B69B2FBBB
:101D5000F3F27B681A6014E04FF46053C4F202039C
:101D60005B6803F460434FEA5333BB60BB6803F125
:101D700001034FF4004202FA03F31A467B681A602B
:101D800000BF4FF46053C4F202039B6803F0F003FA
:101D9000FB61FB694FEA1313FB6140F21003C2F2CF
:101DA0000003FA699B181B78DBB2FB607B681A683A
:101DB000FB6822FA03F27B685A604FF46053C4F266
:101DC00002039B6803F4E063FB61FB694FEA1323A2
:101DD000FB6140F21003C2F20003FA699B181B7802
:101DE000DBB2FB607B685A68FB6822FA03F27B680F
:101DF0009A604FF46053C4F202039B6803F460538B
:101E0000FB61FB694FEAD323FB6140F21003C2F28E
:101E10000003FA699B181B78DBB2FB607B685A6889
:101E2000FB6822FA03F27B68DA6007F12407BD46FB
:101E300080BC704780B485B000AF78604FF000037D
:101E4000FB607B6803F44033B3F5403F15D14FF49A
:101E50006053C4F202031B68FB60FB6823F0C043BD
:101E6000FB607B6803F0C043FA681343FB604FF4E8
:101E70006053C4F20203FA681A604FF46053C4F26C
:101E800002034FF46052C4F20202526B22F4403259
:101E90005A634FF46053C4F202034FF46052C4F229
:101EA0000202516B7A6802F440320A435A6307F126
:101EB0001407BD4680BC704780B483B000AF0346B2
:101EC000FB714FF4DB63C4F24723FA791A6007F120
:101ED0000C07BD4680BC704780B483B000AF03469A
:101EE000FB7140F2DC63C4F24723FA791A6007F110
:101EF0000C07BD4680BC704780B483B000AF7860EB
:101F00000B46FB70FB78002B0CD04FF46053C4F2EF
:101F100002034FF46052C4F20202D1697A680A43A4
:101F2000DA610DE04FF46053C4F202034FF46052E3
:101F3000C4F20202D1697A686FEA02020A40DA61E9
:101F400007F10C07BD4680BC704700BF80B483B06A
:101F500000AF78600B46FB70FB78002B0CD04FF481
:101F60006053C4F202034FF46052C4F20202516A99
:101F70007A680A435A620DE04FF46053C4F20203D8
:101F80004FF46052C4F20202516A7A686FEA0202A8
:101F90000A405A6207F10C07BD4680BC704700BF7B
:101FA00080B487B000AF0346FB714FF00003FB60C5
:101FB0004FF000037B614FF00003FB74FB794FEAA5
:101FC0005313DBB2FB60FB68012B06D14FF4605367
:101FD000C4F202031B687B6105E04FF46053C4F256
:101FE00002035B6B7B61FB7903F01F03FB60FB6803
:101FF0007A6922FA03F303F00103002B03D04FF0B8
:102000000103FB7402E04FF00003FB74FB7C1846F5
:1020100007F11C07BD4680BC704700BF80B500AF0C
:102020004FF46053C4F202034FF46052C4F2020250
:10203000126842F480721A604FF46052C4F20202D5
:102040004FF46053C4F2020399684CF20C03C8F6D3
:10205000FF030B4093604FF46053C4F202034FF44C
:102060006052C4F20202126822F0885222F0011279
:102070001A604FF46053C4F202034FF46052C4F28A
:102080000202126822F480221A604FF46053C4F2F4
:1020900002034FF46052C4F20202926822F47D02FD
:1020A0009A604FF46053C4F202034FF00002DA600A
:1020B00000F008F84FF46D43CEF200034FF00062D9
:1020C0009A6080BD80B483B000AF4FF000037B60A6
:1020D0004FF000033B604FF46053C4F202034FF42F
:1020E0006052C4F20202126842F480321A604FF465
:1020F0006053C4F202031B6803F400333B607B6847
:1021000003F101037B603B68002B03D17B68B3F5CF
:10211000A06FECD14FF46053C4F202031B6803F4C8
:102120000033002B03D04FF001033B6002E04FF07F
:1021300000033B603B68012B40F0AF804FF47053CD
:10214000C4F202034FF47052C4F20202126842F069
:1021500004021A604FF47053C4F202034FF4705239
:10216000C4F20202126842F002021A604FF4705385
:10217000C4F202034FF47052C4F20202126842F039
:1021800001021A604FF46053C4F202034FF460522C
:10219000C4F20202526A42F080525A624FF4E043A3
:1021A000C4F200034FF400621A6000BF4FF4E04332
:1021B000C4F200035B6803F01003002BF6D14FF468
:1021C0006053C4F202034FF46052C4F202029268F8
:1021D0009A604FF46053C4F202034FF46052C4F2A9
:1021E000020292689A604FF46053C4F202034FF403
:1021F0006052C4F2020292689A604FF46053C4F2D3
:1022000002034FF46052C4F20202926822F47D028B
:102210009A604FF46053C4F202034FF46052C4F268
:102220000202926842F411029A604FF46053C4F2C1
:1022300002034FF46052C4F20202126842F080724C
:102240001A6000BF4FF46053C4F202031B6803F02E
:102250000073002BF6D04FF46053C4F202034FF426
:102260006052C4F20202926822F003029A604FF4B4
:102270006053C4F202034FF46052C4F20202926847
:1022800042F003029A6000BF4FF46053C4F20203AD
:102290009B6803F00C030C2BF6D107F10C07BD462D
:1022A00080BC704780B500AF4FF00100FFF724FB02
:1022B0004FF00100FFF710FE4FF00000FFF70CFE9B
:1022C0004FF00100FFF788FC00BF4FF04900FFF717
:1022D00067FE0346002BF8D04FF48030FFF7AAFDCD
:1022E0004FF00100FFF7E8FD4FF00000FFF704FB9F
:1022F00000BF80BD80B582B000AF786039604FF01C
:102300000100FFF7F9FA07F104034FF00000194646
:1023100001F02AFC3B464FF00000194601F028FD71
:102320004FF00000FFF7E8FA00BF07F10807BD46CD
:1023300080BD00BF80B58CB000AF78604FF4003036
:10234000FFF72AFC4FF400333B614FF000033B756D
:102350004FF008037B754FF00103BB7507F11003C5
:102360001846FFF77DFB4FF029033B734FF0000346
:102370007B734FF00003BB734FF00103FB7307F156
:102380000C03184601F0CAFA4FF00100FFF7B4FA47
:102390004FF480704FF0000101F0AAFE7B683B62B1
:1023A0004FF000437B6207F120034FF000004FF431
:1023B00080711A4601F0DEFD4FF400104FF000016D
:1023C00001F00AFF4FF480504FF0010101F03EFF91
:1023D0004FF480704FF0010101F08AFE4FF48070DD
:1023E00001F0BCFF4FF00000FFF786FA4FF000034A
:1023F000184607F13007BD4680BD00BF80B582B0EA
:1024000000AF4FF003004FF00101FFF775FD4FF0F3
:1024100000033B714FF00103FB714FF004033B607D
:102420003B464FF00000C4F202001946FDF762FE81
:102430004FF000033B714FF00203FB714FF00103BB
:102440003B603B464FF00000C4F202001946FDF726
:1024500051FE4FF000033B714FF00103FB714FF44D
:1024600080533B603B464FF48060C4F20200194643
:10247000FDF740FE4FF001033B714FF00203FB718B
:102480004FF002033B603B464FF00000C4F20200F5
:102490001946FDF72FFE07F10807BD4680BD00BFB6
:1024A00080B582B002AF40F23E03C2F200031B7857
:1024B000DBB2002B1ED1FDF7D1FF4FF028030093B4
:1024C0004FF003004FF00C014CF25042C0F60002F6
:1024D0004FF07B03FEF70CFA40F23E03C2F200031A
:1024E0001B78DBB203F10103DAB240F23E03C2F221
:1024F00000031A7040F23403C2F200031B78DBB20F
:10250000012B17D140F23C03C2F200031B7803F108
:10251000FF324CF20873C0F600039A5C40F24003AD
:10252000C2F200031A7040F23E03C2F200034FF001
:1025300000021A7040F23403C2F200031B78DBB2CF
:10254000022B1BD140F23C03C2F200031B78012B8B
:102550000DD940F23C03C2F200031B7803F1FF33B4
:10256000DAB240F23C03C2F200031A7006E040F215
:102570003C03C2F200034FF001021A7040F2340330
:10258000C2F200031B78DBB20C2B1BD140F23C03E0
:10259000C2F200031B78032B0DD840F23C03C2F2B9
:1025A00000031B7803F10103DAB240F23C03C2F2EC
:1025B00000031A7006E040F23C03C2F200034FF041
:1025C00004021A7040F23403C2F200031B78DBB23B
:1025D000002B3ED040F23C03C2F200031B7803F113
:1025E000FF334FEA03124CF2B863C0F60003D3186E
:1025F0004FF000004FF036011A464FF00A03FEF785
:102600008BFB4FF0000300934FF000004FF00A01E6
:102610004FF080024FF00A03FEF7B0F840F23C039F
:10262000C2F200031B7803F1FF334FEA431240F27A
:102630003C03C2F200031B784FEA43134FF0010141
:10264000009110464FF00A011A464FF00A03FEF7B8
:1026500095F8BD4680BD00BF80B584B000AF07F1DE
:10266000040383E8070040F69840C2F200004FF0F0
:102670001001FEF7F5FB7A6840F23803C2F200035E
:102680001A6040F23803C2F200031B6840F22000D7
:10269000C2F2000019464FF00102FEF76BFB40F654
:1026A0009840C2F2000040F22001C2F2000101F0A5
:1026B000BDFF40F69840C2F2000002F03BF803462E
:1026C0001A4640F69843C2F20003D2184CF2107337
:1026D000C0F600031B8813803B7A40F22000C2F250
:1026E000000019464FF00102FEF744FB40F6984007
:1026F000C2F2000040F22001C2F2000101F096FF98
:1027000040F69840C2F2000002F014F803461A4660
:1027100040F69843C2F20003D2184CF21073C0F690
:1027200000031B8813807B7A40F22000C2F2000075
:1027300019464FF00102FEF71DFB40F69840C2F229
:10274000000040F22001C2F2000101F06FFF07F12A
:102750001007BD4680BD00BF90B587B006AF40F200
:102760003E03C2F200031B78DBB2002B0FD1FDF752
:1027700075FE40F23E03C2F200031B78DBB203F1A8
:102780000103DAB240F23E03C2F200031A7040F2D3
:102790003403C2F200031B78DBB2012B0DD140F2EF
:1027A0004003C2F200034FF000021A7040F23E03F1
:1027B000C2F200034FF000021A704FF0000040F622
:1027C000A841C2F2000101F07FFA4FF0000040F68C
:1027D0008841C2F2000101F079FB40F6A843C2F241
:1027E00000031A7840F65443C2F200039A7140F68F
:1027F000A843C2F200035A7840F65443C2F20003E1
:10280000DA7140F6A843C2F200039A7840F65443C6
:10281000C2F200031A7240F68843C2F20003DB786A
:102820001A4640F65443C2F200031A6040F6884349
:10283000C2F200035A7840F65443C2F200031A7100
:1028400040F68843C2F200039A7840F65443C2F23D
:1028500000035A7140F65443C2F2000393E80700A4
:10286000FFF7FAFE4FF058004FF0000140F6984293
:10287000C2F200024FF00803FEF766FE40F6544332
:10288000C2F200031A7A40F67C43C2F200031B7ABC
:102890009A4252D040F65443C2F2000340F67C42C2
:1028A000C2F2000201AC07CA84E807004FF0190227
:1028B00004929A6800920CCB4FF00A004FF0170177
:1028C000FEF770FE40F65443C2F200039A7940F6D8
:1028D0007C43C2F200039A7140F65443C2F20003F3
:1028E000DA7940F67C43C2F20003DA7140F65443D1
:1028F000C2F200031A7A40F67C43C2F200031A7255
:1029000040F24103C2F200031B78072B08D9FFF7FE
:102910003BF840F24103C2F200034FF000021A708C
:1029200040F24103C2F200031B7803F10103DAB263
:1029300040F24103C2F200031A7007F10407BD46DA
:1029400090BD00BF90B589B006AF40F23E03C2F221
:1029500000031B78DBB2002B5CD1FDF77FFD4FF04D
:10296000000040F6A841C2F2000101F0ADF94FF0BD
:10297000000040F68841C2F2000101F0A7FA40F6DB
:10298000A843C2F200031A7840F65443C2F200038F
:102990009A7140F6A843C2F200035A7840F65443B5
:1029A000C2F20003DA7140F6A843C2F200039A783B
:1029B00040F65443C2F200031A7240F68843C2F252
:1029C0000003DB781A4640F65443C2F200031A6053
:1029D00040F68843C2F200035A7840F65443C2F2EC
:1029E00000031A7140F68843C2F200039A7840F659
:1029F0005443C2F200035A7140F23E03C2F2000394
:102A00001B78DBB203F10103DAB240F23E03C2F2FB
:102A100000031A7040F23403C2F200031B78DBB2E9
:102A2000012B13D140F23D03C2F200031B78052BAA
:102A30000CD840F23D03C2F200031B7803F10103FE
:102A4000DAB240F23D03C2F200031A7040F23D03D5
:102A5000C2F200031B78062B00F2438201A252F857
:102A600023F000BF812A0008272B0008CD2B000887
:102A7000732C0008152D0008BB2D0008612E0008DE
:102A800040F23403C2F200031B78DBB20C2B13D1EB
:102A900040F65443C2F200039B79172B0CD840F642
:102AA0005443C2F200039B7903F10103DAB240F60A
:102AB0005443C2F200039A7140F23403C2F200039D
:102AC0001B78DBB2022B13D140F65443C2F2000351
:102AD0009B79002B0CD040F65443C2F200039B7943
:102AE00003F1FF33DAB240F65443C2F200039A71A5
:102AF0004FF0000300934FF000004FF00A014FF039
:102B000080024FF00A03FDF739FE4FF001030093F6
:102B10004FF006004FF00A014FF026024FF00A0373
:102B2000FDF72CFEDDE140F23403C2F200031B7816
:102B3000DBB20C2B13D140F65443C2F20003DB7915
:102B40003A2B0CD840F65443C2F20003DB7903F170
:102B50000103DAB240F65443C2F20003DA7140F2E4
:102B60003403C2F200031B78DBB2022B13D140F610
:102B70005443C2F20003DB79002B0CD040F65443DF
:102B8000C2F20003DB7903F1FF33DAB240F65443BB
:102B9000C2F20003DA714FF0000300934FF000001F
:102BA0004FF00A014FF080024FF00A03FDF7E6FDF7
:102BB0004FF0010300934FF032004FF00A014FF045
:102BC00052024FF00A03FDF7D9FD8AE140F23403C7
:102BD000C2F200031B78DBB20C2B13D140F6544336
:102BE000C2F200031B7A3A2B0CD840F65443C2F2CF
:102BF00000031B7A03F10103DAB240F65443C2F238
:102C000000031A7240F23403C2F200031B78DBB2F5
:102C1000022B13D140F65443C2F200031B7A002B5F
:102C20000CD040F65443C2F200031B7A03F1FF3389
:102C3000DAB240F65443C2F200031A724FF00003B6
:102C400000934FF000004FF00A014FF080024FF068
:102C50000A03FDF793FD4FF0010300934FF060006E
:102C60004FF00A014FF080024FF00A03FDF786FD96
:102C700037E140F23403C2F200031B78DBB20C2BC5
:102C800012D140F65443C2F200031B68622B0BD8EA
:102C900040F65443C2F200031B6803F1010240F600
:102CA0005443C2F200031A6040F23403C2F200033C
:102CB0001B78DBB2022B12D140F65443C2F2000360
:102CC0001B68002B0BD040F65443C2F200031B6874
:102CD00003F1FF3240F65443C2F200031A604FF092
:102CE000000300934FF000004FF00A014FF0800204
:102CF0004FF00A03FDF742FD4FF0010300934FF040
:102D000006004FF00A014FF026024FF00A03FDF7CC
:102D100035FDE6E040F23403C2F200031B78DBB27B
:102D20000C2B13D140F65443C2F200031B790B2B3A
:102D30000CD840F65443C2F200031B7903F101039F
:102D4000DAB240F65443C2F200031A7140F234037F
:102D5000C2F200031B78DBB2022B13D140F65443BE
:102D6000C2F200031B79002B0CD040F65443C2F290
:102D700000031B7903F1FF33DAB240F65443C2F289
:102D800000031A714FF0000300934FF000004FF062
:102D90000A014FF080024FF00A03FDF7EFFC4FF0FD
:102DA000010300934FF032004FF00A014FF052023E
:102DB0004FF00A03FDF7E2FC93E040F23403C2F265
:102DC00000031B78DBB20C2B13D140F65443C2F244
:102DD00000035B791E2B0CD840F65443C2F200036B
:102DE0005B7903F10103DAB240F65443C2F2000307
:102DF0005A7140F23403C2F200031B78DBB2022B9B
:102E000013D140F65443C2F200035B79002B0CD07F
:102E100040F65443C2F200035B7903F1FF33DAB2A8
:102E200040F65443C2F200035A714FF0000300937E
:102E30004FF000004FF00A014FF080024FF00A03FC
:102E4000FDF79CFC4FF0010300934FF060004FF042
:102E50000A014FF080024FF00A03FDF78FFC40E0BB
:102E600040F23E03C2F200034FF000021A7040F23B
:102E70004003C2F200034FF000021A7040F23D031B
:102E8000C2F200034FF000021A704FF04003FB71D2
:102E900040F65443C2F200039B793B7140F6544321
:102EA000C2F20003DB797B7140F65443C2F20003A7
:102EB0001B7ABB7140F65443C2F200031B68DBB2BD
:102EC000FB7040F65443C2F200031B797B7040F65E
:102ED0005443C2F200035B79BB7078683968FFF72E
:102EE00009FA40F23D03C2F200031B78022B42D8DC
:102EF0004FF000004FF036014CF21472C0F60002A1
:102F00004FF00703FDF708FF40F65443C2F20003F9
:102F100040F67C42C2F2000201AC07CA84E8070016
:102F20004FF0190204929A6800920CCB4FF00A00FD
:102F30004FF01701FEF736FB40F65443C2F2000390
:102F40009A7940F67C43C2F200039A7140F65443EA
:102F5000C2F20003DA7940F67C43C2F20003DA7170
:102F600040F65443C2F200031A7A40F67C43C2F2A0
:102F700000031A7226E040F23D03C2F200031B7800
:102F8000022B1FD94FF000004FF036014CF228728F
:102F9000C0F600024FF00703FDF7BEFE40F65443B3
:102FA000C2F2000393E80700FFF756FB4FF00A0058
:102FB0004FF0170140F69842C2F200024FF0190399
:102FC000FEF7C2FA07F10C07BD4690BD90B589B077
:102FD00006AF40F23E03C2F200031B78DBB2002BC7
:102FE0005CD1FDF73BFA4FF0000040F6A841C2F279
:102FF000000100F069FE4FF0000040F68841C2F287
:10300000000100F063FF40F6A843C2F200031A7803
:1030100040F65443C2F200039A7140F6A843C2F24C
:1030200000035A7840F65443C2F20003DA7140F6C6
:10303000A843C2F200039A7840F65443C2F2000358
:103040001A7240F68843C2F20003DB781A4640F653
:103050005443C2F200031A6040F68843C2F20003F0
:103060005A7840F65443C2F200031A7140F688437E
:10307000C2F200039A7840F65443C2F200035A7138
:1030800040F23E03C2F200031B78DBB203F10103FE
:10309000DAB240F23E03C2F200031A7040F2340387
:1030A000C2F200031B78DBB2012B13D140F23D03C7
:1030B000C2F200031B78052B0CD840F23D03C2F28C
:1030C00000031B7803F10103DAB240F23D03C2F2C0
:1030D00000031A7040F23D03C2F200031B78032B79
:1030E00000F2328101A252F823F000BFFD30000847
:1030F000A331000849320008EF32000840F23403DF
:10310000C2F200031B78DBB20C2B13D140F6544300
:10311000C2F200039B79172B0CD840F65443C2F23D
:1031200000039B7903F10103DAB240F65443C2F283
:1031300000039A7140F23403C2F200031B78DBB241
:10314000022B13D140F65443C2F200039B79002BAB
:103150000CD040F65443C2F200039B7903F1FF33D5
:10316000DAB240F65443C2F200039A714FF0000302
:1031700000934FF000004FF00A014FF080024FF033
:103180000A03FDF7FBFA4FF0010300934FF006002E
:103190004FF00A014FF026024FF00A03FDF7EEFA56
:1031A000D2E040F23403C2F200031B78DBB20C2BF6
:1031B00013D140F65443C2F20003DB793A2B0CD80A
:1031C00040F65443C2F20003DB7903F10103DAB2A3
:1031D00040F65443C2F20003DA7140F23403C2F203
:1031E00000031B78DBB2022B13D140F65443C2F22A
:1031F0000003DB79002B0CD040F65443C2F20003ED
:10320000DB7903F1FF33DAB240F65443C2F2000334
:10321000DA714FF0000300934FF000004FF00A0105
:103220004FF080024FF00A03FDF7A8FA4FF00103B8
:1032300000934FF032004FF00A014FF052024FF06E
:103240000A03FDF79BFA7FE040F23403C2F2000369
:103250001B78DBB20C2B13D140F65443C2F20003AF
:103260001B7A3A2B0CD840F65443C2F200031B7A67
:1032700003F10103DAB240F65443C2F200031A72BA
:1032800040F23403C2F200031B78DBB2022B13D1ED
:1032900040F65443C2F200031B7A002B0CD040F6D8
:1032A0005443C2F200031B7A03F1FF33DAB240F653
:1032B0005443C2F200031A724FF0000300934FF020
:1032C00000004FF00A014FF080024FF00A03FDF7B3
:1032D00055FA4FF0010300934FF060004FF00A01E0
:1032E0004FF080024FF00A03FDF748FA2CE040F25D
:1032F0003E03C2F200034FF000021A7040F2400396
:10330000C2F200034FF000021A7040F23D03C2F215
:1033100000034FF000021A704FF00003FB7140F6FB
:103320005443C2F200039B793B7140F65443C2F20E
:103330000003DB797B7140F65443C2F200031B7A31
:10334000BB717868FEF7F6FF40F23D03C2F200035E
:103350001B78022B41D84FF000004FF036014CF2A1
:103360003C72C0F600024FF00703FDF7D5FC40F6B3
:103370005443C2F2000340F67C42C2F2000201ACA8
:1033800007CA84E807004FF0190204929A68009275
:103390000CCB4FF00A004FF01701FEF703F940F68F
:1033A0005443C2F200039A7940F67C43C2F2000310
:1033B0009A7140F65443C2F20003DA7940F67C4336
:1033C000C2F20003DA7140F65443C2F200031A7AE3
:1033D00040F67C43C2F200031A7207F10C07BD46A7
:1033E00090BD00BF80B500AF40F23E03C2F20003C3
:1033F0001B78DBB2002B0DD1FDF730F84FF00A003F
:103400004FF026014CF25072C0F600024FF00A0352
:10341000FDF782FC40F23E03C2F200031B78DBB2F0
:1034200003F10103DAB240F23E03C2F200031A7064
:1034300040F23403C2F200031B78DBB2012B07D049
:1034400040F23E03C2F200031B78DBB21E2B0DD903
:1034500040F24003C2F200034FF001021A7040F242
:103460003E03C2F200034FF000021A704FF000005A
:10347000C4F202004FF00201FCF704FF4FF06400B9
:10348000FCF71CFF4FF00000C4F202004FF00201F5
:10349000FCF706FF4FF0C800FCF710FF80BD00BF2F
:1034A00080B500AF4FF4805000F078FF0346002B4A
:1034B00013D04FF00100FEF71FFA4FF4805000F0D8
:1034C000B7FF4FF4807000F049FF4FF00000FEF7A7
:1034D00013FA4FF40030FEF75FFB4FF4807000F0FA
:1034E00015FF0346002B12D04FF00100FEF704FA3F
:1034F0004FF4807000F032FF4FF00000FEF7FCF94F
:1035000040F24003C2F200034FF005021A7080BD82
:1035100080B400AFBD4680BC704700BF80B586B0A8
:1035200000AF4FF080504FF00101FEF70FFD4FF458
:103530006053C4F202034FF46052C4F202025268B4
:1035400022F460425A604FF46053C4F202034FF415
:103550006052C4F20202526842F440425A604FF490
:103560007A70FCF7ABFE40F24003C2F200034FF06A
:1035700000021A7040F23E03C2F200034FF0000254
:103580001A704FF00000FEF717FB4FF00000FEF737
:10359000C3F94FF00100FEF7E7F94FF000004FF0DC
:1035A0000101FEF7C9F94FF00100FEF7DDF94FF414
:1035B0000030FEF7F1FA4FF400333B614FF00003A7
:1035C0003B754FF008037B754FF00103BB7507F1A6
:1035D00010031846FEF744FA4FF029033B734FF0EF
:1035E00000037B734FF00003BB734FF00103FB73C9
:1035F00007F10C03184600F091F94FF00200FEF7B6
:10360000EDF90346002B2CD040F24503C2F2000333
:103610004FF001021A7040F24003C2F200034FF073
:1036200001021A704FF4807000F070FE0346002B08
:1036300006D040F24003C2F200034FF005021A70B8
:103640004FF00200FEF7E8F94FF00100FEF754F9E1
:103650004FF4807000F082FE4FF00000FEF74CF94E
:1036600030E040F24503C2F200034FF000021A704E
:103670004FF04003FB724FF014033B724FF0000316
:103680007B724FF01403BB72FEF70CFE4FF0400349
:10369000FB714FF014033B714FF000037B714FF04F
:1036A0000003BB714FF007033B704FF00E03FB703C
:1036B0004FF008037B704FF01103BB7078683968D6
:1036C000FEF718FEFCF7F8FEFCF7C8FEFEF7F6F86A
:1036D00040F24103C2F200034FF000021A70FEF7FD
:1036E0008DFE40F67C43C2F200034FF000029A7157
:1036F00040F67C43C2F200034FF00002DA7140F65C
:103700007C43C2F200034FF000021A7240F23C0305
:10371000C2F200034FF001021A7040F24303C2F2FA
:1037200000034FF000021A7040F23D03C2F20003A2
:103730004FF000021A7040F6BD43C2F200034FF092
:1037400000021A7040F6BC43C2F200034FF00002C0
:103750001A7040F66043C2F200034FF000021A7084
:1037600040F23E03C2F200034FF000021A7040F232
:103770003403C2F200034FF000021A704FF0000051
:10378000C4F202004FF00101FCF75CFD03461A464B
:1037900040F66043C2F200031A704FF00000C4F21A
:1037A00002004FF00401FCF74DFD03461A4640F6B7
:1037B000BC43C2F200031A704FF48060C4F20200EE
:1037C0004FF48051FCF73EFD03461A4640F6BD43D8
:1037D000C2F200031A7040F66043C2F200031B7885
:1037E000DBB2002B0DD040F66043C2F200034FF075
:1037F00000021A7040F23403C2F200034FF00102DB
:103800001A7040F6BC43C2F200031B78DBB2002BF7
:103810000DD140F6BC43C2F200034FF000021A7013
:1038200040F23403C2F200034FF002021A7040F675
:10383000BD43C2F200031B78DBB2002B0DD140F672
:10384000BD43C2F200034FF000021A7040F234038D
:10385000C2F200034FF00C021A7040F23403C2F2BD
:1038600000031B78DBB2002B13D04FF00000C4F232
:1038700002004FF00201FCF705FD4FF01E00FCF7BF
:103880001DFD4FF00000C4F202004FF00201FCF7F2
:1038900007FD40F24003C2F200031B78DBB2032BAA
:1038A00029D0032B06DC012B0ED0012B0FDC002BC3
:1038B00007D02CE0052B24D0052B1FDBFE2B23D0BB
:1038C00025E0FEF7EDFD23E0FEF746FF20E04FF098
:1038D00000004FF000014CF25C72C0F600024FF0A5
:1038E0000A03FDF719FA40F24003C2F200034FF059
:1038F00000021A700CE0FFF769FB09E0FFF722F8FD
:1039000006E0FFF76FFD03E0FCF7A8FD00E000BF55
:103910004FF0FA00FCF7D2FC29E700BF80B485B075
:1039200000AF78604FF00003FB734FF00003BB73F0
:103930004FF00F037B737B68DB78002B45D04FF48F
:103940006D43CEF20003DB686FEA030303F4E06328
:103950004FEA1323FB73FB7BC3F10403BB737A7B36
:10396000FB7B42FA03F37B737B685B781A46BB7B75
:1039700002FA03F3FB737B689A787B7B1340DAB21D
:10398000FB7B1343FB73FB7B4FEA0313FB734FF487
:103990006143CEF200037A6812789B18FA7B83F8B1
:1039A00000234FF46143CEF200037A6812784FEAA5
:1039B0005212D2B27968097801F01F014FF001006C
:1039C00000FA01F143F8221014E04FF46143CEF203
:1039D00000037A6812784FEA5212D2B279680978F5
:1039E00001F01F014FF0010000FA01F102F1200285
:1039F00043F8221007F11407BD4680BC704700BF92
:103A000080B485B000AF4FF000037B604FF000033F
:103A1000FB734FF00003BB604FF42053C4F200036C
:103A2000DB6803F04003002B2AD14FF42053C4F28B
:103A300000034FF0FF32DA604FF42053C4F200036A
:103A4000DB6803F04003BB607B6803F101037B602C
:103A50007B68B3F5005F02D0BB68002BECD04FF45D
:103A60002053C4F20003DB6803F04003002B03D0B3
:103A70004FF00103FB7306E04FF00003FB7302E01D
:103A80004FF00103FB73FB7B184607F11407BD469B
:103A900080BC704780B400AF4FF42053C4F20003E1
:103AA0004FF42052C4F20002D26822F08002DA60A1
:103AB000BD4680BC704700BF80B485B000AF4FF0FA
:103AC00000037B604FF00003FB734FF00003BB600B
:103AD0004FF42053C4F200034FF0CA025A624FF46D
:103AE0002053C4F200034FF053025A624FF42053A4
:103AF000C4F200034FF42052C4F20002D26822F054
:103B0000A002DA604FF42053C4F20003DB6803F034
:103B10002003BB607B6803F101037B607B68B3F526
:103B2000004F02D0BB68002BECD04FF42053C4F2FE
:103B30000003DB6803F02003002B03D04FF00103E8
:103B4000FB7302E04FF00003FB734FF42053C4F209
:103B500000034FF0FF025A62FB7B184607F114077F
:103B6000BD4680BC704700BF90B585B000AF78609F
:103B700039604FF00003FB604FF00003FB727B687D
:103B8000002B0DD14FF42053C4F200039B6803F0C7
:103B90004003002B19D13B684FF00002DA7014E0AB
:103BA0004FF42053C4F200039B6803F04003002B42
:103BB00007D03B681B78184600F082FC0346FB6088
:103BC00003E03B684FF00002DA707B68002B12D0F4
:103BD0003B681B784FEA03423B685B784FEA03235C
:103BE0001A433B689B781A433B68DB784FEA0343F0
:103BF0001343FB601EE03B681B78184600F03EFC58
:103C000003464FEA03443B685B78184600F036FCF5
:103C100003464FEA03231C433B689B78184600F099
:103C20002DFC034644EA03023B68DB784FEA03437A
:103C30001343FB604FF42053C4F200034FF0CA0259
:103C40005A624FF42053C4F200034FF053025A62F9
:103C5000FFF7D6FE0346002B03D14FF00003FB72A3
:103C600024E04FF42053C4F20003FA6802F07F32DC
:103C700022F0FE421A60FFF70DFF4FF42053C4F20A
:103C800000039B6803F02003002B0CD1FFF714FF07
:103C90000346002B03D14FF00003FB7206E04FF008
:103CA0000103FB7202E04FF00103FB724FF420535B
:103CB000C4F200034FF0FF025A62FB7A184607F184
:103CC0001407BD4690BD00BF80B584B000AF7860DA
:103CD00039604FF00003FB604FF42053C4F200033F
:103CE0001B6803F07F3323F0FE43FB60FB6803F4A3
:103CF0007C134FEA1343DAB23B681A70FB6803F493
:103D0000FE434FEA1323DAB23B685A70FB68DBB21A
:103D100003F07F03DAB23B689A70FB6803F4800318
:103D20004FEA1343DAB23B68DA707B68002B1AD192
:103D30003B681B78184600F0C3FB03461A463B68F5
:103D40001A703B685B78184600F0BAFB03461A46C7
:103D50003B685A703B689B78184600F0B1FB0346FD
:103D60001A463B689A7007F11007BD4680BD00BF38
:103D700090B585B000AF786039604FF00003FB600C
:103D80004FF00003FB727B68002B0FD13B685B7820
:103D900003F01003002B09D03B685B7823F010037D
:103DA000DBB203F10A03DAB23B685A707B68002B7E
:103DB0000DD03B685B78184600F082FB0346FB6041
:103DC0003B689B78184600F07BFB0346FB607B68F2
:103DD000002B12D03B68DB784FEA03423B685B78EC
:103DE0004FEA03231A433B689B781A433B681B78CE
:103DF0004FEA43331343FB601EE03B68DB78184611
:103E000000F03CFB03464FEA03443B685B781846EE
:103E100000F034FB03464FEA03231C433B689B78C6
:103E2000184600F02BFB034644EA03023B681B786C
:103E30004FEA43331343FB604FF42053C4F20003B3
:103E40004FF0CA025A624FF42053C4F200034FF0FD
:103E500053025A62FFF7D4FD0346002B03D14FF003
:103E60000003FB7224E04FF42053C4F20003FA680D
:103E700022F07F4222F0C0025A60FFF70BFE4FF49F
:103E80002053C4F200039B6803F02003002B0CD1E5
:103E9000FFF712FE0346002B03D14FF00003FB7225
:103EA00006E04FF00103FB7202E04FF00103FB72EA
:103EB0004FF42053C4F200034FF0FF025A62FB7A22
:103EC000184607F11407BD4690BD00BF80B584B009
:103ED00000AF786039604FF00003FB604FF420536F
:103EE000C4F200035B6823F07F4323F0C003FB6050
:103EF000FB6803F47F034FEA1343DAB23B68DA70DE
:103F0000FB6803F4F8534FEA1323DAB23B685A70A4
:103F1000FB68DBB203F03F03DAB23B689A70FB68E0
:103F200003F460434FEA5333DAB23B681A707B689C
:103F3000002B1AD13B68DB78184600F0C1FA034623
:103F40001A463B68DA703B685B78184600F0B8FAAE
:103F500003461A463B685A703B689B78184600F047
:103F6000AFFA03461A463B689A7007F11007BD4640
:103F700080BD00BF90B587B000AFF860B9607A60CF
:103F80004FF000037B61FB68002B0DD14FF42053F1
:103F9000C4F200039B6803F04003002B2CD17B6824
:103FA0004FF00002DA7027E04FF42053C4F2000310
:103FB0009B6803F04003002B07D07B681B781846F2
:103FC00000F07EFA03467B6103E07B684FF000025D
:103FD000DA707B689B68002B07D17B681B7B1846D7
:103FE00000F06EFA03467B6106E07B681B7B184697
:103FF00000F066FA03467B61FB68002B1DD07B68EE
:104000001B784FEA03427B685B784FEA03231A432D
:104010007B689B781A437B68DB784FEA03431A433B
:104020007B681B7B4FEA03631A437B689B681A43D8
:104030007B685B6813437B612FE07B681B781846C5
:1040400000F01CFA03464FEA03447B685B7818468D
:1040500000F014FA03464FEA03231C437B689B7865
:10406000184600F00BFA034644EA03027B68DB784B
:104070004FEA034342EA03047B681B7B184600F0C7
:10408000FDF903464FEA036344EA03027B689B6839
:104090001A437B685B6813437B614FF42053C4F27F
:1040A00000034FF0CA025A624FF42053C4F20003D7
:1040B0004FF053025A62BB68B3F5807F06D14FF4CC
:1040C0002053C4F200037A69DA6105E04FF420530B
:1040D000C4F200037A691A624FF42053C4F2000359
:1040E0004FF0FF025A6207F11C07BD4690BD00BFAA
:1040F00080B487B000AF78600B46FB704FF00003D0
:10410000FB604FF000033B614FF00003FB754FF481
:104110002053C4F200034FF0CA025A624FF42053F6
:10412000C4F200034FF053025A62FB78002B0FD009
:104130004FF42053C4F200034FF42052C4F20002A3
:1041400091687A680A439A604FF00103FB7534E086
:104150004FF42053C4F200034FF42052C4F2000283
:1041600091687A686FEA02020A409A604FF420531D
:10417000C4F20003DA687B684FEA132313403B6103
:10418000FB6803F10103FB60FB68B3F5005F02D03D
:104190003B69002BEAD04FF42053C4F20003DA68E5
:1041A0007B684FEA13231340002B03D14FF0000329
:1041B000FB7502E04FF00103FB754FF42053C4F28E
:1041C00000034FF0FF025A62FB7D184607F11C07FF
:1041D000BD4680BC704700BF80B483B000AF78603C
:1041E00039604FF42053C4F200034FF0CA025A6200
:1041F0004FF42053C4F200034FF053025A624FF4BD
:104200002053C4F200034FF42052C4F2000292681B
:1042100022F4E0029A604FF42053C4F200034FF4FA
:104220002052C4F20002916878683A6802430A4357
:104230009A604FF42053C4F200034FF0FF025A6219
:1042400007F10C07BD4680BC704700BF80B483B047
:1042500000AF78600B46FB704FF42053C4F20003AC
:104260004FF0CA025A624FF42053C4F200034FF0D9
:1042700053025A62FB78002B1CD04FF42053C4F237
:1042800000034FF42052C4F2000291687A6822F0D1
:1042900004020A439A604FF42053C4F200034FF41F
:1042A0002052C4F20002116C7A6802F004020A4340
:1042B0001A641FE04FF42053C4F200034FF420525D
:1042C000C4F2000291687A6822F004026FEA0202E6
:1042D0000A409A604FF42053C4F200034FF4205276
:1042E000C4F20002116C7A6802F004026FEA020262
:1042F0000A401A644FF42053C4F200034FF0FF0247
:104300005A6207F10C07BD4680BC704780B485B087
:1043100000AF78604FF00003FB734FF00003BB6009
:104320004FF42053C4F20003DA684FF67F73C0F2F3
:1043300001031340BB60BA687B681340002B03D0B5
:104340004FF00103FB7302E04FF00003FB73FB7BB4
:10435000184607F11407BD4680BC704780B483B08F
:1043600000AF78604FF42052C4F2000279684FF633
:104370007F73C0F201030B4043F080036FEA030137
:104380004FF42053C4F20003DB6803F080030B43B7
:10439000D36007F10C07BD4680BC704780B487B07E
:1043A00000AF78604FF00003FB754FF000033B61F6
:1043B0004FF00003FB604FF42053C4F200031B6C6A
:1043C00003F004033B614FF42053C4F200039A68E6
:1043D0007B681A407B684FEA9343796821FA03F3BC
:1043E0004FEAD3313B690B401343FB604FF420533A
:1043F000C4F20003DA687B684FEA131313403B6191
:10440000FB68002B0AD03B694FEA03434FEA134392
:10441000002B03D04FF00103FB7502E04FF00003C7
:10442000FB75FB7D184607F11C07BD4680BC704735
:1044300080B485B000AF78604FF00003FB607B680C
:104440004FEA1313FB604FF42053C4F20003FA68E1
:104450004FEA02424FEA124242F080026FEA020142
:104460004FF42052C4F20002D26802F080020A43E4
:10447000DA6007F11407BD4680BC704780B485B090
:1044800000AF0346FB714FF00003FB7307E0FB7BBB
:1044900003F10103FB73FB79A3F10A03FB71FB79C1
:1044A000092BF4D8FB7B4FEA0313DAB2FB791343F1
:1044B000DBB2184607F11407BD4680BC704700BF49
:1044C00080B485B000AF0346FB714FF00003FB736F
:1044D000FB794FEA1313DBB21A464FEA8202D31874
:1044E0004FEA4303FB73FB7903F00F03DAB2FB7B64
:1044F000D318DBB2184607F11407BD4680BC7047DD
:10450000F0B48407034600F08D80541E002A00F0AA
:104510008780E507CEB211D41A4602F8016B134624
:104520001546920710D0621E002C79D003F8016B5B
:1045300014469A071D4607D0013CEDE7034603F8F1
:10454000016B9A071D46F7D1032C52D9CEB246EA29
:1045500006270F2C47EA07432DD9A4F1100217466E
:104560000F2FC2F300162B606B60AB60EB6005F1A0
:10457000100216D93EB1103F136053609360D360B0
:1045800010320F2F0DD9203F02F110061360536037
:104590009360D360136153619361D36120320F2F15
:1045A000F1D8A4F1100222F00F0204F00F0410322F
:1045B000032C15441DD9271F3E462A46032E42F8D8
:1045C000043BC7F380070DD927B1043E032E42F800
:1045D000043B07D9174647F8043B083E53603A1D91
:1045E000032EF7D8231F23F00302131D04F0030446
:1045F000ED18ACB1C9B2EA432C1905F8011BA31898
:10460000A54203F001020BD01AB105F8011BA54227
:1046100006D02B4603F8011B69705D1CA542F8D13A
:10462000F0BC7047054614468EE700BF830770B59F
:10463000064614D10368A3F1013222EA030010F008
:10464000803F0CD1331D1A4653F8044BA4F10135B9
:1046500025EA040414F0803FF5D0104600E030460F
:1046600003782BB1421C147810460132002CFAD189
:1046700000F002F8304670BD80EA0102844612F074
:10468000030F4FD111F0030F32D14DF8044D11F04B
:10469000040F51F8043B0BD0A3F101329A4312F0FE
:1046A000803F04BF4CF8043B51F8043B16D100BFD7
:1046B00051F8044BA3F101329A4312F0803FA4F168
:1046C00001320BD14CF8043BA24312F0803F04BFEF
:1046D00051F8043B4CF8044BEAD023460CF8013B5C
:1046E00013F0FF0F4FEA3323F8D15DF8044B704706
:1046F00011F0010F06D011F8012B0CF8012B002A44
:1047000008BF704711F0020FBFD031F8022B12F032
:10471000FF0F16BF2CF8022B8CF8002012F47F4FED
:10472000B3D1704711F8012B0CF8012B002AF9D1F5
:10473000704700BF20F0030110F00300C0F100003B
:1047400051F8043B00F1040C4FEACC0C6FF000026E
:104750001CBF22FA0CF213434FF0010C4CEA0C2C54
:104760004CEA0C4CA3EB0C0222EA030212EACC1234
:1047700004BF51F8043B0430F4D013F0FF0F1FBF07
:10478000013013F47F4F013013F47F0F18BF013055
:10479000704700BF000000000000000000000000A3
:1047A0000000000000000000000000000000000009
:1047B00000000000000000000000000000000000F9
:1047C00000000000000000000000000000000000E9
:1047D00000000000000000000000000000000000D9
:1047E00000000000000000000000000000000000C9
:1047F00000000000000000000000000000000000B9
:1048000000000000000000000000000000000000A8
:104810000003030000000000000000000000000092
:1048200000000000000000000000000000FFFC008D
:104830000000000000000000000000000000000078
:10484000000000000000000000F303000000000072
:104850000000000000000000000000000000000058
:104860000000000000000000000000000000000048
:104870000000000000000000000000000000000335
:10488000030000030300000000000000000000001F
:104890000000000000000000000000FCE00000FC40
:1048A000E000000000000000000000000000000028
:1048B00000000000000000000000000000000000F8
:1048C00000000000000000000000000000000000E8
:1048D00000000000000000000000000000000000D8
:1048E00000000000000000000000000000000000C8
:1048F00001060000000001060000000000000000AA
:1049000000000000000000000808080FF808080870
:10491000080FF80808000000000000000000000078
:104920000000000040437CC0404040437CC0404009
:104930004000000000000000000000000000000037
:104940000000000000000000000000000000000067
:104950000000000000000000000000000000010155
:104960000202070202010100000000000000000036
:10497000000000000000000000F0F81C0E06FF031D
:104980000301E00000000000000000000000000043
:1049900000000000001E06030101FF0183C6FE782F
:1049A0000000000000000000000000000000000007
:1049B000000000000000C000000000000000000037
:1049C00000000000000000000001030203010000DD
:1049D00000000000000000010200000000000000D4
:1049E00000000000FCFE030103FEFC000001020CBD
:1049F00010608103020301000000000000000000BD
:104A00000000000102041820C000000000FCFE03AA
:104A10000103FEFC00000000000000000000000098
:104A20000000000000000000000000000000000086
:104A30000000000000000000000000000000010372
:104A4000020202010000000000000000000000005F
:104A5000000000000000000001F9FE1F070508101B
:104A6000E00407070404000000000000000000004C
:104A7000003C7EC783010181C1E2743C1E6687034E
:104A80000303060C0000000000000000000000000E
:104A90000000000000000000000000000000000016
:104AA0000000000000000000000000000000000006
:104AB00000030300000000000000000000000000F0
:104AC00000000000000000000000000000FCE0000A
:104AD00000000000000000000000000000000000D6
:104AE00000000000000000000000000000000000C6
:104AF00000000000000000000000000000000000B6
:104B000000000000000000000000000000000000A5
:104B10000000000000000000000000000000000095
:104B2000000001020400000000000000000000007E
:104B300000000000000000000000071F708000005F
:104B40000000000000000000000000000000000065
:104B5000000000000000F8FE03000000000000005C
:104B60000000000000000000000000000000000045
:104B70000000000080C020100800000000000000BD
:104B8000000000000000000000000000000004021F
:104B90000100000000000000000000000000000014
:104BA0000000000000000000000000000080701FF6
:104BB00007000000000000000000000000000000EE
:104BC0000000000000000000000003FEF8000000EC
:104BD00000000000000000000000000000000000D5
:104BE00000000810204080000000000000000000CD
:104BF00000000000000000000000000000000101B3
:104C0000000007000001010000000000000000009B
:104C1000000000000000000000009898F060FE60B6
:104C2000F098980000000000000000000000000064
:104C30000000000000000000000000000000000074
:104C40000000000000000000000000000000000064
:104C50000000000000000000000000000000000054
:104C60000000000000000000000000000000000044
:104C70000000000000000000000000000000000034
:104C80000000000000000001010101010101FF011D
:104C9000010101010101000000000000000000000E
:104CA00000000000000000000000FE000000000006
:104CB00000000000000000000000000000000000F4
:104CC00000000000000000000000000000000000E4
:104CD00000000000000000000000000000000000D4
:104CE00000000000000000000000000000000000C4
:104CF00000000000000000000000000000000000B4
:104D000000000000000000000000000000000000A3
:104D10000000000000000000030303010000000089
:104D20000000000000000000000000000000000083
:104D300000000000101020C0000000000000000073
:104D40000000000000000000000000000000000063
:104D50000000000000000000000000000000000053
:104D60000000000000000000000000000000000043
:104D70000000000000000000000000000000000033
:104D80000000000000006060606060606000000083
:104D90000000000000000000000000000000000013
:104DA0000000000000000000000000000000000003
:104DB00000000000000000000000000000000000F3
:104DC00000000000000000000000000000000000E3
:104DD00000000000000000000000000000000000D3
:104DE00000000000000000000000000000000000C3
:104DF00000000000000000000003030000000000AD
:104E000000000000000000000000000000000000A2
:104E10000000000000000000000000000000000092
:104E20000000000000000000000000000000000082
:104E3000000000000304000000000000000000006B
:104E400000000000000000000000000000030E70E1
:104E500080000000000000000000000000000000D2
:104E6000000000000000010E708000000000000043
:104E70000000000000000000000000000000000032
:104E80000000000000000000000000000000000022
:104E90000000000000000000000000000000000111
:104EA00002020202010000000000000000000000F9
:104EB00000000000000000001F7FE0000000000074
:104EC00000C07F1F00000000000000000000000084
:104ED00000000000E0F81C0201010101021CF8E0E2
:104EE00000000000000000000000000000000000C2
:104EF00000000000000000000000000000000000B2
:104F0000000000000000000000000000000101039C
:104F1000030300000000000000000000000000008B
:104F2000000000000000000000000000FFFF000083
:104F30000000000000000000000000000000000071
:104F40000000000000000101FFFF0101000000005F
:104F50000000000000000000000000000000000051
:104F60000000000000000000000000000000000041
:104F7000000000000000000000000000000001032D
:104F80000303030301010000000000000000000013
:104F90000000000000000000608080000000008031
:104FA000C3FC7800000000000000000000000000CA
:104FB000000000000103070B1323438303030704CE
:104FC00000000000000000000000000000000000E1
:104FD00000000000000000000000000000000000D1
:104FE00000000000000000000000000000000103BD
:104FF00003030303010000000000000000000000A4
:105000000000000000000000408000020206078F40
:10501000FBE30000000000000000000000000000B2
:10502000000000000303030101010102C6FCF000BF
:105030000000000000000000000000000000000070
:105040000000000000000000000000000000000060
:105050000000000000000000000000000000000050
:10506000000000000303000000000000000000003A
:105070000000000000000000000001060830608011
:10508000FFFF000000000000000000000000000022
:105090000000000060E0202020202020FFFF2020D2
:1050A0000000000000000000000000000000000000
:1050B00000000000000000000000000000000000F0
:1050C00000000000000000000000000000000000E0
:1050D00003030303030302000000000000000000BC
:1050E0000000000000000000000838D81C0C0C0E66
:1050F00007030100000000000000000000000000A5
:1051000000000000020303010101010284F8F00025
:10511000000000000000000000000000000000008F
:10512000000000000000000000000000000000007F
:10513000000000000000000000000000000000006F
:105140000000010103020202000000000000000054
:105150000000000000000000030F3E72C4848404BD
:105160000603030000000000000000000000000033
:1051700000000000F0FC0E02010101010286FCF0BB
:10518000000000000000000000000000000000001F
:10519000000000000000000000000000000000000F
:1051A00000000000000000000000000000010303F8
:1051B00003030303030300000000000000000000DD
:1051C0000000000000000000408000000000000718
:1051D00038C00000000000000000000000000000D7
:1051E0000000000000000000031CE00000000000C0
:1051F00000000000000000000000000000000000AF
:10520000000000000000000000000000000000009E
:10521000000000000000000000000000000101028A
:105220000202020201010000000000000000000074
:105230000000000000000000F0F81C0F0707070D39
:1052400018F0E00000000000000000000000000076
:10525000000000003C7EC603010181C1E27E3800EF
:10526000000000000000000000000000000000003E
:10527000000000000000000000000000000000002E
:10528000000000000000000000000000000001031A
:105290000202020201010000000000000000000004
:1052A00000000000000000003CFF8301000000003F
:1052B00000C1FF3F000000000000000000000000EF
:1052C00000000000010101838286848CB870C00058
:1052D00000000000000000000000000000000000CE
:1052E00000000000000000000000000000000000BE
:1052F00000000000000000000000000000000000AE
:10530000000000000000000000000000000000009D
:10531000000000000000000000000000000C0C0075
:10532000000000000000000000000000000000007D
:105330000000000000000000000303000000000067
:10534000000000000000000000000000000000005D
:10535000000000000000000000000000000000004D
:10536000000000000000000000000000000000003D
:10537000000000000000000000000000000000002D
:105380000000000000000000000000000C0C000005
:10539000000000000000000000000000000000000D
:1053A00000000000000000000303030100000000F3
:1053B00000000000000000000000000000000000ED
:1053C00000000000101020C00000000000000000DD
:1053D00000000000000000000000000000000000CD
:1053E00000000000000000000000000000000000BD
:1053F000000000000000000001020204040408088C
:1054000010102020204000000000000000000000DC
:10541000000000000080804040402020101008085C
:105420000804000000000000000000000000000070
:10543000000000000000000000000000000000006C
:10544000000000000000000000000000000000005C
:10545000000000000000000000000000000000004C
:1054600000000000000000000808080808080808FC
:105470000808080808000000000000000000000004
:10548000000000008080808080808080808080801C
:10549000800000000000000000000000000000008C
:1054A00000000000000000000000000000000000FC
:1054B00000000000000000000000000000000000EC
:1054C00000000000000000000000000000000000DC
:1054D00000000000000000402020201010080804F8
:1054E00004040202010000000000000000000000AF
:1054F0000000000408080810102020404040808070
:10550000000000000000000000000000000000009B
:10551000000000000000000000000000000000008B
:10552000000000000000000000000000000000017A
:10553000020202020301000000000000000000005F
:1055400000000000000000000000F07000000001FA
:1055500086FCF000000000000000000000000000D9
:105560000000000000000000007383000000000045
:10557000000000000000000000000000000000002B
:10558000000000000000000000000000000000001B
:105590000000000000000000000000000101020205
:1055A00004040404040404020201000000000000DA
:1055B000000000010E3860C0800003070E081810BC
:1055C00010080F0F180080601F000000000000FE90
:1055D000010000003EFFE301010202041F7FF18190
:1055E00002020C30C00100000000000080603008A2
:1055F000080404020202020202020404081020400D
:10560000800000000000000000000000000000001A
:105610000303000000000000000000000000000084
:10562000000000000000000000031CE080E0F81E05
:105630000701000000000000000000000000000062
:105640000101031F61C1404040404040C0F17F1F45
:105650000701010000000000000000000000000041
:10566000000000000000000000000000000000003A
:10567000000000000000000000020202030302021A
:10568000020202020301010000000000000000000D
:105690000000000000000000FFFF02020202020200
:1056A00006068DFD780000000000000000000000EC
:1056B00000010101FFFF0101010101010103028657
:1056C000FC78000000000000000000000000000066
:1056D00000000000000000000000000000000000CA
:1056E00000000000000000000000000000000101B8
:1056F0000202020202030101010300000000000097
:105700000000000000000F3F70C00000000000001B
:1057100000000080E0F00000000000000000000039
:105720000000C0F01C040203010101010103020496
:105730000810000000000000000000000000000051
:105740000000000000000000000000000000000059
:105750000000000000000000020202030302020237
:10576000020202030101000000000000000000002E
:1057700000000000000000FFFF000000000000002B
:105780000080C0F03F0F000000000000000000009B
:10579000010101FFFF0101010101010302060C38B3
:1057A000F0C0000000000000000000000000000049
:1057B00000000000000000000000000000000000E9
:1057C00000000000000000000000020202030302CB
:1057D00002020202020202030300000000000000B5
:1057E000000000000000000000FFFF0202020202B1
:1057F00002071F00C00000000000000000000000C1
:105800000000010101FFFF01010101010101C303CA
:105810000F18000000000000000000000000000061
:105820000000000000000000000000000000000078
:10583000000000000000000000000202020303025A
:105840000202020202020303000000000000000046
:10585000000000000000000000FFFF02020202073B
:105860001F0000C000000000000000000000000059
:105870000000010101FFFF0101010000C000000064
:105880000000000000000000000000000000000018
:105890000000000000000000000000000000000008
:1058A00000000000000000000000000000010102F4
:1058B00002020202030101030000000000000000D8
:1058C00000000000000F3F608000000000000002A8
:1058D0000282E3F302020200000000000000000068
:1058E00000C0F03C0C060203010101010103FEFEB1
:1058F00000000000000000000000000000000000A8
:105900000000000000000000000000000000000097
:105910000000000000000000020202030302020275
:105920000000000202020303020202000000000065
:1059300000000000000000FFFF020202020202025B
:105940000202FFFF00000000000000000000000055
:10595000010101FFFF010101000000010101FFFF42
:105960000101010000000000000000000000000034
:105970000000000000000000000000000000000027
:105980000000000000000000000000000000020213
:1059900002030302020200000000000000000000F9
:1059A00000000000000000000000000000FFFF00F9
:1059B00000000000000000000000000000000000E7
:1059C000000000000000010101FFFF0101010000D3
:1059D00000000000000000000000000000000000C7
:1059E00000000000000000000000000000000000B7
:1059F00000000000000000000000000000000002A5
:105A00000202030302020200000000000000000086
:105A10000000000000000000000000000000FFFF88
:105A20000000000000000000000000000000000076
:105A300000000000000006070301FEF8000000005F
:105A40000000000000000000000000000000000056
:105A50000000000000000000000000000000000046
:105A60000000000000000000020202030302020224
:105A70000000000203030302020000000000000017
:105A800000000000000000FFFF0207050910204091
:105A90008000000000000000000000000000000086
:105AA000010101FFFF010181C0E070391D0F0703F3
:105AB00003010100000000000000000000000000E1
:105AC00000000000000000000000000000000000D6
:105AD00000000000000000000000020202030302B8
